:100000000C94CE000C94F6000C94F6000C94F600C0
:100010000C94F6000C94F6000C94F6000C94F60088
:100020000C94F6000C94F6000C9401040C947004EB
:100030000C94F6000C94F6000C94F6000C94F60068
:100040000C94F6000C94F6000C94F6000C94F60058
:100050000C94F6000C94F6000C94F6000C94B70384
:100060000C94F6000C94F6000C94F6000C94F60038
:100070000C94F6000C94F6000C94F6000C94F60028
:100080000C94F6000C94F6000C94F6000C94F60018
:100090000C94F6000C94F6000C94F6000C94F60008
:1000A0000C94F6000C94F6000C94F600080B000279
:1000B0000202000009040000010202000005240001
:1000C0001001052401010104240206052406000193
:1000D0000705810310004009040100020A00000026
:1000E00007050202400000070583024000000403E8
:1000F000090412010002EF02014041233680000191
:100100000102030141726475696E6F204C4C43001B
:1001100041726475696E6F204C656F6E6172646FB9
:100120000000000000240027002A002D00300000FD
:10013000000000250028002B002E003100040404DC
:10014000040403040502020202040302020202067E
:10015000060606060604040202020404040802015C
:100160001040804010204080408008020401804000
:1001700020100201108010204040200000000200EA
:10018000090F0000030401000C0000000000000043
:1001900000000000000000000000730711241FBED3
:1001A000CFEFDAE0DEBFCDBF11E0A0E0B1E0E0E2EA
:1001B000FFE002C005900D92A632B107D9F721E009
:1001C000A6E2B1E001C01D92A539B207E1F710E047
:1001D000CEECD0E004C02197FE010E948807CD3C00
:1001E000D107C9F70E94A2060C948E070C94000058
:1001F000E4E8F1E02491E5E6F1E03491E6E4F1E0B1
:100200009491992309F430C02223E9F021502F3032
:10021000D0F4E22FF0E0E15FFE4F0C9488073D013F
:1002200041011E013501390123012301230144014C
:100230004A014E015201580123015C0120918000C6
:100240002F7720938000E92FF0E0EE0FFF1FE15D94
:10025000FE4FA591B4919FB7F894EC91811132C0F3
:1002600030953E233C939FBF0895209180002F7DC1
:10027000E8CF20918000277FE4CF24B52F7724BDDD
:10028000E2CF24B52F7DFBCF209190002F772093D4
:100290009000D9CF209190002F7DF9CF2091900030
:1002A000277FF5CF2091C0002F772093C000CBCFC0
:1002B0002091C0002F7DF9CF2091C200277F20938D
:1002C000C200C1CF3E2BCECFFC0180919401882388
:1002D00011F13FB7F89482E08093E9002091F20099
:1002E000822F90E01816190614F481E090E088231C
:1002F00039F0289844E6409393014091F1004083FF
:10030000222339F02091F200211103C02BE6209323
:10031000E8003FBF08958FEF9FEF08952FB7F8943F
:1003200083E08093E9009091E800892F807295FF27
:1003300004C09091F20080E4891B2FBF0895809142
:100340008B0181110DC082E08093870184E080934E
:10035000880110928A011092890181E080938B01BB
:1003600087E891E008953FB7F894809183019091D8
:100370008401A0918501B091860126B5A89B05C096
:100380002F3F19F00196A11DB11D3FBFBA2FA92F14
:10039000982F8827BC01CD01620F711D811D911D11
:1003A00042E0660F771F881F991F4A95D1F708957D
:1003B000CF92DF92EF92FF920E94B3016B017C011A
:1003C0000E94B3016C197D098E099F09683E734034
:1003D00081059105A8F3FF90EF90DF90CF900895ED
:1003E0004091280150912901209126013091270147
:1003F00042175307B4F49091E8009570E1F390919F
:10040000E80092FD19C08093F1008091280190913D
:10041000290101968F739927892B19F48EEF809308
:10042000E80080912801909129010196909329017B
:100430008093280181E0089580E00895EF92FF9273
:100440000F931F93CF93DF93F82E192FE62E042FCF
:1004500081E0860F880F0E94F00183E00E94F00186
:10046000CF2DD12FEC0EFD2EF11CCE15DF05B9F0EE
:1004700007FF13C0FE0184910E94F001182F80E055
:100480000E94F001812321968111EFCFDF91CF915E
:100490001F910F91FF90EF9008958881EDCF81E03B
:1004A000F5CFDF92EF92FF920F931F93CF93DF93DD
:1004B000D82E8A01EB017B01E40EF51ECE15DF0577
:1004C00059F0D7FE12C0FE0184910E94F0012196DE
:1004D0008111F4CF0FEF1FEFC801DF91CF911F9172
:1004E0000F91FF90EF90DF9008958881EECF0F93EA
:1004F0001F93CF93DF931F92CDB7DEB782E089833E
:1005000042E450E06CEA70E080E80E9451020E94F0
:100510009F01DC0112960D911C910115110589F0C6
:10052000D801ED91FC910280F381E02DBE016F5F57
:100530007F4FC801099597FD04C0F801008511851A
:10054000ECCF89810F90DF91CF911F910F9108958A
:10055000615030F02091F100FC0120830196F8CF2A
:10056000289884E68093930108958F929F92AF928A
:10057000BF92CF92DF92EF92FF920F931F93CF9390
:10058000DF936C017B018A0180910B01882309F4C0
:1005900058C080919401882309F453C080912C01A4
:1005A00080FF05C08091E00082608093E000E80158
:1005B000B12C8AEFA82E93E0892E2AE3922E209761
:1005C00011F4BB20B9F10E948E01811106C0AA94DA
:1005D000AA20B9F10E94D801F2CF8C171D0611F0A4
:1005E0000CF08C2F9FB7F8948092E9002091E800DE
:1005F00025FD02C09FBFE3CF282F30E0C21BD30BE5
:10060000F701815020F041914093F100FACFE20EC2
:10061000F31EBB2021F09092E800B12CEBCF80912B
:10062000E80085FDE7CF9092E800BB24B3942097C3
:1006300009F3F3CF5D9884E680932B011016110621
:100640003CF081E090E0F6019383828310E000E0CB
:10065000C801DF91CF911F910F91FF90EF90DF9034
:10066000CF90BF90AF909F908F900895CF93DF93DE
:100670001F92CDB7DEB76983DC01ED91FC9102805A
:10068000F381E02D41E050E0BE016F5F7F4F09959F
:100690000F90DF91CF91089583E08093E9008091DE
:1006A000F200882319F08AE38093E80008950E94FD
:1006B0008E0190E00895CF93DF931F92CDB7DEB700
:1006C000FC018485958597FD08C02FEF3FEF3587A6
:1006D00024870F90DF91CF910895CE0101960E945B
:1006E0006401019719F4898190E0F3CF8FEF9FEFB8
:1006F000F0CF0F931F93CF93DF931F92CDB7DEB749
:100700008C01FC018485958597FF0BC0CE01019675
:100710000E946401019771F4898190E0F801958746
:100720008487F801848595850F90DF91CF911F9183
:100730000F9108958FEF9FEFF1CFFC018485958590
:1007400097FD0BC09FB7F89482E08093E9008091F9
:10075000F2009FBF90E0019608959FB7F89482E061
:100760008093E9008091F2009FBF90E008951F926E
:100770000F920FB60F9211242F933F938F939F9355
:10078000AF93BF9380917F0190918001A0918101EF
:10079000B091820130917E0123E0230F2D3758F56F
:1007A0000196A11DB11D20937E0180937F0190933E
:1007B0008001A0938101B093820180918301909187
:1007C0008401A0918501B09186010196A11DB11D02
:1007D0008093830190938401A0938501B093860157
:1007E000BF91AF919F918F913F912F910F900FBE2D
:1007F0000F901F90189526E8230F0296A11DB11D9A
:10080000D2CF1F920F920FB60F9211248F939F9306
:100810008091E1009091E100937F9093E10083FF4C
:100820000FC01092E90091E09093EB001092EC0061
:1008300092E39093ED001092940198E09093F00071
:1008400082FF22C093E09093E9009091F2009923F7
:1008500019F09AE39093E80090912B01992341F0CD
:1008600090912B01915090932B01911101C05D9AB1
:1008700090919301992341F090919301915090931D
:100880009301911101C0289A84FF18C08091E20061
:100890008E7E81608093E2008091E1008F7E809364
:1008A000E10080912C018E7E806180932C019F91CC
:1008B0008F910F900FBE0F901F90189580FFF7CF6C
:1008C0008091E2008E7E80618093E2008091E10061
:1008D0008E7E8093E10080912C018E7E8160E5CF39
:1008E0001F920F920FB60F921124CF92DF92EF92C8
:1008F000FF920F931F932F933F934F935F936F93A9
:100900007F938F939F93AF93BF93EF93FF93CF9377
:10091000DF93CDB7DEB76C97DEBFCDBF1092E90095
:100920008091E80083FF25C068E0CE0145960E94D3
:10093000A80282EF8093E8008D8987FF39C09091EB
:10094000E80090FFFCCF982F907609F034C19E8983
:100950004F89588D2F89F88C911131C0803861F5FD
:1009600080912D018093F1001092F1008EEF809321
:10097000E8006C960FB6F894DEBF0FBECDBFDF91D6
:10098000CF91FF91EF91BF91AF919F918F917F9107
:100990006F915F914F913F912F911F910F91FF9018
:1009A000EF90DF90CF900F900FBE0F901F90189593
:1009B0009EEF9093E800C7CF1092F100D5CF913011
:1009C00059F48111D3CF4130510581F680912D0129
:1009D0008D7F80932D01CACF933049F48111C6CF0A
:1009E0004130510519F680912D018260F2CF95308A
:1009F00041F48091E80080FFFCCF20682093E30061
:100A0000B5CF963009F0A9C00B8D1C8D22E0109255
:100A1000E9001092290110922801F2122EC01092C2
:100A20002701109226010E9477021F8299E0998384
:100A3000FA8291E09E8390EA98879AEF99872091B5
:100A4000280130912901275F3F4F3C832B838D8301
:100A50001092E900109229011092280110932701A9
:100A60000093260149E050E0BE016F5F7F4F80E0B8
:100A70000E9451020E94770279CF109327010093C0
:100A800026010E949F01DC0112960D911C91011517
:100A9000110509F451C1D801ED91FC910480F58153
:100AA000E02DBE016B5E7F4FC8010995009709F0EC
:100AB0003EC1F80100851185EACFF3E0FF120EC0B8
:100AC0008F89882309F440C0823061F440E860E1F6
:100AD00080E191E00E941E02811148CF81E2809363
:100AE000EB0047CF813029F440E86BE084E091E0EF
:100AF000F1CF833099F70E949F01DC011296ED90AF
:100B0000FC908E010F5F1F4F6801E114F10479F032
:100B1000D701ED91FC910680F781E02DB801C70166
:100B20000995080F111DF701E084F184EECFD8017B
:100B30001C92F60101900020E9F73197BF016C1972
:100B40007D0940E0C601C6CF6EEE70E0FB01449126
:100B500050E080E80E94510209CF973009F4BECFDF
:100B6000983021F481E08093F10000CF993009F0B2
:100B7000FDCE837009F0B2CFEFE1F1E081E031E02A
:100B800096E32191222371F08093E9003093EB00EA
:100B9000DF0111972C912093EC009093ED008F5F73
:100BA000873079F78EE78093EA001092EA008F8908
:100BB00080939401DBCE8B8D9C8D1092E900109276
:100BC0002901109228019093270180932601898D95
:100BD000811192C08E899D89913A49F4813209F040
:100BE0007DCF47E050E064E071E080E0B3CF913228
:100BF00009F074CF833269F48F89988DB0E0A0E05A
:100C00008093000190930101A0930201B09303012E
:100C1000ADCE803269F48091E80082FFFCCF67E0BE
:100C200084E091E00E94A8028BEF8093E8009ECEC2
:100C3000823209F09BCE8F8980930B01EEEFFFE7A4
:100C4000859194918B3F9C4D51F1E0E0F8E08091CB
:100C5000040190910501A0910601B0910701803B2C
:100C60009440A105B105F1F480910B0180FD1AC0FB
:100C7000EE3F8AE0F80789F587E797E7918380835D
:100C80008091600080932A0188E19BE00FB6F89480
:100C9000A895809360000FBE9093600067CEEEEF42
:100CA000FAE0D5CF808191818737974709F05ECEF2
:100CB000A8958091600088618093600080912A01EE
:100CC00080936000EE3F2AE0F20789F08091FE0AEF
:100CD0009091FF0A9183808349CE808191818737EB
:100CE000980751F29093FF0A8093FE0AC5CF1092A5
:100CF000FF0A1092FE0A3ACE0E949F01DC01129672
:100D00000D911C910115110509F4E8CED801ED9162
:100D1000FC910190F081E02DBE016B5E7F4FC80118
:100D20000995811123CEF80100851185EBCF1816A6
:100D300019060CF41BCED2CEF1E0FF12BECE62EF4C
:100D400070E004CF789484B5826084BD84B58160FE
:100D500084BD85B5826085BD85B5816085BD809186
:100D60006E00816080936E001092810080918100FE
:100D700082608093810080918100816080938100F6
:100D800080918000816080938000809191008260DA
:100D90008093910080919100816080939100809177
:100DA00090008160809390008091C1008460809366
:100DB000C1008091C10082608093C1008091C10018
:100DC00081608093C1008091C30081608093C300E3
:100DD0008091C00082608093C0008091C2008160D9
:100DE0008093C20080917A00846080937A00809121
:100DF0007A00826080937A0080917A00816080938B
:100E00007A0080917A00806880937A001092940131
:100E100010922D0110922C018091D7008160809357
:100E2000D70080EA8093D80089B5806189BD89B5F3
:100E3000826089BD09B400FEFDCF0E94D801809177
:100E4000D8008F7C80618093D8008091E000807F03
:100E50008093E0008091E1008E7E8093E1008DE040
:100E60008093E200559A209AE5E6F1E02491E6E4C9
:100E7000F1E08491882399F090E0880F991FFC019C
:100E8000EF5DFE4FA591B491FC01E15DFE4F8591B0
:100E900094918FB7F894EC91E22BEC938FBF80E0A4
:100EA0000E94F8008FEF9FEF90933B0180933A01EF
:100EB000C0E0D0E08EE291E00E949D031816190672
:100EC0004CF48EE291E00E945B03813341F481E0B7
:100ED0000E94F800209771F30E940000EBCF80334E
:100EE000C9F780E0F5CFEEE2F1E01382128288EEDE
:100EF00093E0A0E0B0E084839583A683B78380E18C
:100F000091E0918380838FEF9FEF95878487089589
:100F1000EE0FFF1F0590F491E02D0994F894FFCF98
:100F2000FFFFFFFF00E100000000000000000000E4
:100F30003603B50257034C039D035B03790300C1DD
:060F4000808100000000AA
:00000001FF
